{
  "_format": "hh-sol-artifact-1",
  "contractName": "Presale",
  "sourceName": "src/contracts/Presale.sol",
  "abi": [
    {
      "inputs": [
        {
          "internalType": "uint256",
          "name": "_price",
          "type": "uint256"
        },
        {
          "internalType": "address",
          "name": "_presaleToken",
          "type": "address"
        },
        {
          "internalType": "uint256",
          "name": "_perUsdtobnb",
          "type": "uint256"
        }
      ],
      "stateMutability": "nonpayable",
      "type": "constructor"
    },
    {
      "inputs": [],
      "name": "RescueFunds",
      "outputs": [],
      "stateMutability": "nonpayable",
      "type": "function"
    },
    {
      "inputs": [
        {
          "internalType": "contract IERC20",
          "name": "_add",
          "type": "address"
        },
        {
          "internalType": "uint256",
          "name": "_amount",
          "type": "uint256"
        },
        {
          "internalType": "address",
          "name": "_recipient",
          "type": "address"
        }
      ],
      "name": "RescueTokens",
      "outputs": [],
      "stateMutability": "nonpayable",
      "type": "function"
    },
    {
      "inputs": [],
      "name": "Usdtobnb",
      "outputs": [
        {
          "internalType": "uint256",
          "name": "",
          "type": "uint256"
        }
      ],
      "stateMutability": "view",
      "type": "function"
    },
    {
      "inputs": [
        {
          "internalType": "address",
          "name": "ref",
          "type": "address"
        }
      ],
      "name": "buyFromNative",
      "outputs": [],
      "stateMutability": "payable",
      "type": "function"
    },
    {
      "inputs": [],
      "name": "owner",
      "outputs": [
        {
          "internalType": "address",
          "name": "",
          "type": "address"
        }
      ],
      "stateMutability": "view",
      "type": "function"
    },
    {
      "inputs": [],
      "name": "paused",
      "outputs": [
        {
          "internalType": "bool",
          "name": "",
          "type": "bool"
        }
      ],
      "stateMutability": "view",
      "type": "function"
    },
    {
      "inputs": [],
      "name": "perDollarPrice",
      "outputs": [
        {
          "internalType": "uint256",
          "name": "",
          "type": "uint256"
        }
      ],
      "stateMutability": "view",
      "type": "function"
    },
    {
      "inputs": [],
      "name": "perticipents",
      "outputs": [
        {
          "internalType": "uint256",
          "name": "",
          "type": "uint256"
        }
      ],
      "stateMutability": "view",
      "type": "function"
    },
    {
      "inputs": [
        {
          "internalType": "address",
          "name": "",
          "type": "address"
        },
        {
          "internalType": "address",
          "name": "",
          "type": "address"
        }
      ],
      "name": "referral",
      "outputs": [
        {
          "internalType": "bool",
          "name": "",
          "type": "bool"
        }
      ],
      "stateMutability": "view",
      "type": "function"
    },
    {
      "inputs": [
        {
          "internalType": "bool",
          "name": "_value",
          "type": "bool"
        }
      ],
      "name": "setPause",
      "outputs": [],
      "stateMutability": "nonpayable",
      "type": "function"
    },
    {
      "inputs": [
        {
          "internalType": "uint256",
          "name": "_price",
          "type": "uint256"
        }
      ],
      "name": "setTokenPrice",
      "outputs": [],
      "stateMutability": "nonpayable",
      "type": "function"
    },
    {
      "inputs": [
        {
          "internalType": "uint256",
          "name": "_price",
          "type": "uint256"
        }
      ],
      "name": "setbnbPrice",
      "outputs": [],
      "stateMutability": "nonpayable",
      "type": "function"
    },
    {
      "inputs": [],
      "name": "token",
      "outputs": [
        {
          "internalType": "contract IERC20",
          "name": "",
          "type": "address"
        }
      ],
      "stateMutability": "view",
      "type": "function"
    },
    {
      "inputs": [],
      "name": "totalSold",
      "outputs": [
        {
          "internalType": "uint256",
          "name": "",
          "type": "uint256"
        }
      ],
      "stateMutability": "view",
      "type": "function"
    },
    {
      "inputs": [
        {
          "internalType": "address",
          "name": "_newOwner",
          "type": "address"
        }
      ],
      "name": "transferOwnership",
      "outputs": [],
      "stateMutability": "nonpayable",
      "type": "function"
    }
  ],
  "bytecode": "0x60a06040523480156200001157600080fd5b50604051620014df380380620014df833981810160405281019062000037919062000168565b33600060016101000a81548173ffffffffffffffffffffffffffffffffffffffff021916908373ffffffffffffffffffffffffffffffffffffffff160217905550826001819055508173ffffffffffffffffffffffffffffffffffffffff1660808173ffffffffffffffffffffffffffffffffffffffff168152505080600281905550505050620001c4565b600080fd5b6000819050919050565b620000dd81620000c8565b8114620000e957600080fd5b50565b600081519050620000fd81620000d2565b92915050565b600073ffffffffffffffffffffffffffffffffffffffff82169050919050565b6000620001308262000103565b9050919050565b620001428162000123565b81146200014e57600080fd5b50565b600081519050620001628162000137565b92915050565b600080600060608486031215620001845762000183620000c3565b5b60006200019486828701620000ec565b9350506020620001a78682870162000151565b9250506040620001ba86828701620000ec565b9150509250925092565b6080516112f8620001e7600039600081816109ca0152610cde01526112f86000f3fe6080604052600436106100e85760003560e01c80639106d7ba1161008a578063c6461d3611610059578063c6461d36146102bc578063f2fde38b146102d8578063f3d557fc14610301578063fc0c546a1461032c576100e8565b80639106d7ba14610214578063b82721231461023f578063b907a1f614610268578063bedb86fb14610293576100e8565b80636648bc44116100c65780636648bc441461016c5780636a61e5fc1461019757806371052780146101c05780638da5cb5b146101e9576100e8565b806315bb19cc146100ed5780631c505d1d146101045780635c975abb14610141575b600080fd5b3480156100f957600080fd5b50610102610357565b005b34801561011057600080fd5b5061012b60048036038101906101269190610d63565b610430565b6040516101389190610dbe565b60405180910390f35b34801561014d57600080fd5b5061015661045f565b6040516101639190610dbe565b60405180910390f35b34801561017857600080fd5b50610181610470565b60405161018e9190610df2565b60405180910390f35b3480156101a357600080fd5b506101be60048036038101906101b99190610e39565b610476565b005b3480156101cc57600080fd5b506101e760048036038101906101e29190610e39565b610510565b005b3480156101f557600080fd5b506101fe6105aa565b60405161020b9190610e75565b60405180910390f35b34801561022057600080fd5b506102296105d0565b6040516102369190610df2565b60405180910390f35b34801561024b57600080fd5b5061026660048036038101906102619190610ece565b6105d6565b005b34801561027457600080fd5b5061027d6106ea565b60405161028a9190610df2565b60405180910390f35b34801561029f57600080fd5b506102ba60048036038101906102b59190610f4d565b6106f0565b005b6102d660048036038101906102d19190610f7a565b61079c565b005b3480156102e457600080fd5b506102ff60048036038101906102fa9190610f7a565b610c02565b005b34801561030d57600080fd5b50610316610cd6565b6040516103239190610df2565b60405180910390f35b34801561033857600080fd5b50610341610cdc565b60405161034e9190611006565b60405180910390f35b3373ffffffffffffffffffffffffffffffffffffffff16600060019054906101000a900473ffffffffffffffffffffffffffffffffffffffff1673ffffffffffffffffffffffffffffffffffffffff16146103e7576040517f08c379a00000000000000000000000000000000000000000000000000000000081526004016103de9061107e565b60405180910390fd5b3373ffffffffffffffffffffffffffffffffffffffff166108fc479081150290604051600060405180830381858888f1935050505015801561042d573d6000803e3d6000fd5b50565b60036020528160005260406000206020528060005260406000206000915091509054906101000a900460ff1681565b60008054906101000a900460ff1681565b60025481565b3373ffffffffffffffffffffffffffffffffffffffff16600060019054906101000a900473ffffffffffffffffffffffffffffffffffffffff1673ffffffffffffffffffffffffffffffffffffffff1614610506576040517f08c379a00000000000000000000000000000000000000000000000000000000081526004016104fd9061107e565b60405180910390fd5b8060018190555050565b3373ffffffffffffffffffffffffffffffffffffffff16600060019054906101000a900473ffffffffffffffffffffffffffffffffffffffff1673ffffffffffffffffffffffffffffffffffffffff16146105a0576040517f08c379a00000000000000000000000000000000000000000000000000000000081526004016105979061107e565b60405180910390fd5b8060028190555050565b600060019054906101000a900473ffffffffffffffffffffffffffffffffffffffff1681565b60045481565b3373ffffffffffffffffffffffffffffffffffffffff16600060019054906101000a900473ffffffffffffffffffffffffffffffffffffffff1673ffffffffffffffffffffffffffffffffffffffff1614610666576040517f08c379a000000000000000000000000000000000000000000000000000000000815260040161065d9061107e565b60405180910390fd5b8273ffffffffffffffffffffffffffffffffffffffff1663a9059cbb82846040518363ffffffff1660e01b81526004016106a192919061109e565b6020604051808303816000875af11580156106c0573d6000803e3d6000fd5b505050506040513d601f19601f820116820180604052508101906106e491906110dc565b50505050565b60055481565b3373ffffffffffffffffffffffffffffffffffffffff16600060019054906101000a900473ffffffffffffffffffffffffffffffffffffffff1673ffffffffffffffffffffffffffffffffffffffff1614610780576040517f08c379a00000000000000000000000000000000000000000000000000000000081526004016107779061107e565b60405180910390fd5b806000806101000a81548160ff02191690831515021790555050565b60008054906101000a900460ff16156107ea576040517f08c379a00000000000000000000000000000000000000000000000000000000081526004016107e190611155565b60405180910390fd5b600060019050600073ffffffffffffffffffffffffffffffffffffffff168273ffffffffffffffffffffffffffffffffffffffff16148061085657503373ffffffffffffffffffffffffffffffffffffffff168273ffffffffffffffffffffffffffffffffffffffff16145b806108e75750600360003373ffffffffffffffffffffffffffffffffffffffff1673ffffffffffffffffffffffffffffffffffffffff16815260200190815260200160002060008373ffffffffffffffffffffffffffffffffffffffff1673ffffffffffffffffffffffffffffffffffffffff16815260200190815260200160002060009054906101000a900460ff165b610985576001600360003373ffffffffffffffffffffffffffffffffffffffff1673ffffffffffffffffffffffffffffffffffffffff16815260200190815260200160002060008473ffffffffffffffffffffffffffffffffffffffff1673ffffffffffffffffffffffffffffffffffffffff16815260200190815260200160002060006101000a81548160ff021916908315150217905550600290505b600034905060006002548261099a91906111a4565b905060006ec097ce7bc90715b34b9f1000000000826001546109bc91906111a4565b6109c69190611215565b90507f000000000000000000000000000000000000000000000000000000000000000073ffffffffffffffffffffffffffffffffffffffff1663a9059cbb33836040518363ffffffff1660e01b8152600401610a2392919061109e565b6020604051808303816000875af1158015610a42573d6000803e3d6000fd5b505050506040513d601f19601f82011682018060405250810190610a6691906110dc565b508060046000828254610a799190611246565b9250508190555060056000815480929190610a939061127a565b919050555060028403610b915760006064600a85610ab191906111a4565b610abb9190611215565b905060006064605a86610ace91906111a4565b610ad89190611215565b90508673ffffffffffffffffffffffffffffffffffffffff166108fc839081150290604051600060405180830381858888f19350505050158015610b20573d6000803e3d6000fd5b50600060019054906101000a900473ffffffffffffffffffffffffffffffffffffffff1673ffffffffffffffffffffffffffffffffffffffff166108fc829081150290604051600060405180830381858888f19350505050158015610b89573d6000803e3d6000fd5b505050610bfb565b600060019054906101000a900473ffffffffffffffffffffffffffffffffffffffff1673ffffffffffffffffffffffffffffffffffffffff166108fc849081150290604051600060405180830381858888f19350505050158015610bf9573d6000803e3d6000fd5b505b5050505050565b3373ffffffffffffffffffffffffffffffffffffffff16600060019054906101000a900473ffffffffffffffffffffffffffffffffffffffff1673ffffffffffffffffffffffffffffffffffffffff1614610c92576040517f08c379a0000000000000000000000000000000000000000000000000000000008152600401610c899061107e565b60405180910390fd5b80600060016101000a81548173ffffffffffffffffffffffffffffffffffffffff021916908373ffffffffffffffffffffffffffffffffffffffff16021790555050565b60015481565b7f000000000000000000000000000000000000000000000000000000000000000081565b600080fd5b600073ffffffffffffffffffffffffffffffffffffffff82169050919050565b6000610d3082610d05565b9050919050565b610d4081610d25565b8114610d4b57600080fd5b50565b600081359050610d5d81610d37565b92915050565b60008060408385031215610d7a57610d79610d00565b5b6000610d8885828601610d4e565b9250506020610d9985828601610d4e565b9150509250929050565b60008115159050919050565b610db881610da3565b82525050565b6000602082019050610dd36000830184610daf565b92915050565b6000819050919050565b610dec81610dd9565b82525050565b6000602082019050610e076000830184610de3565b92915050565b610e1681610dd9565b8114610e2157600080fd5b50565b600081359050610e3381610e0d565b92915050565b600060208284031215610e4f57610e4e610d00565b5b6000610e5d84828501610e24565b91505092915050565b610e6f81610d25565b82525050565b6000602082019050610e8a6000830184610e66565b92915050565b6000610e9b82610d25565b9050919050565b610eab81610e90565b8114610eb657600080fd5b50565b600081359050610ec881610ea2565b92915050565b600080600060608486031215610ee757610ee6610d00565b5b6000610ef586828701610eb9565b9350506020610f0686828701610e24565b9250506040610f1786828701610d4e565b9150509250925092565b610f2a81610da3565b8114610f3557600080fd5b50565b600081359050610f4781610f21565b92915050565b600060208284031215610f6357610f62610d00565b5b6000610f7184828501610f38565b91505092915050565b600060208284031215610f9057610f8f610d00565b5b6000610f9e84828501610d4e565b91505092915050565b6000819050919050565b6000610fcc610fc7610fc284610d05565b610fa7565b610d05565b9050919050565b6000610fde82610fb1565b9050919050565b6000610ff082610fd3565b9050919050565b61100081610fe5565b82525050565b600060208201905061101b6000830184610ff7565b92915050565b600082825260208201905092915050565b7f43616c6c6572206d757374206265204f776e61626c6521210000000000000000600082015250565b6000611068601883611021565b915061107382611032565b602082019050919050565b600060208201905081810360008301526110978161105b565b9050919050565b60006040820190506110b36000830185610e66565b6110c06020830184610de3565b9392505050565b6000815190506110d681610f21565b92915050565b6000602082840312156110f2576110f1610d00565b5b6000611100848285016110c7565b91505092915050565b7f50726573616c6520697320506175736564212100000000000000000000000000600082015250565b600061113f601383611021565b915061114a82611109565b602082019050919050565b6000602082019050818103600083015261116e81611132565b9050919050565b7f4e487b7100000000000000000000000000000000000000000000000000000000600052601160045260246000fd5b60006111af82610dd9565b91506111ba83610dd9565b92508282026111c881610dd9565b915082820484148315176111df576111de611175565b5b5092915050565b7f4e487b7100000000000000000000000000000000000000000000000000000000600052601260045260246000fd5b600061122082610dd9565b915061122b83610dd9565b92508261123b5761123a6111e6565b5b828204905092915050565b600061125182610dd9565b915061125c83610dd9565b925082820190508082111561127457611273611175565b5b92915050565b600061128582610dd9565b91507fffffffffffffffffffffffffffffffffffffffffffffffffffffffffffffffff82036112b7576112b6611175565b5b60018201905091905056fea2646970667358221220c81a0d5078a4ff58e88ad20a459c72b6d00da91c8a5825ed3f8365f0f22a6b4764736f6c63430008180033",
  "linkReferences": {},
  "deployedLinkReferences": {}
}